:040000000C947500E7
:14008C0050524F4752414D2044454D4F2050454E54525520E5
:1400A0004558454D504C4946494341524541204D4F44554CAC
:1400B400204445204C554352552041204D4F44554C554C55EC
:1400C80049204750494F202D2041464552454E54204C41422B
:0D00DC004F5241544F52554C5549203200AF
:1400EA00CFEFD0E1CDBFDEBFC051D0400AEA08830024E0E0E6
:1400FE00F1E011E0E030F10711F00192FBCF0083E9EEF0E09C
:14011200A0E0B1E010E0E93EF10721F0C89531960D92F9CF1D
:140126000E94BC00FFCF8FEF8BBB22242ABA28BA27BA25BA09
:14013A0084BB22BA21BA23B822B8209262002092610020922D
:14014E006500209264000895F89422242CBE20926D00E5DFE6
:14016200222425BE20926A002ABE29BE27BE20927D00789455
:1401760008954CE850E0ECDF2BC0AA24CE9904C04A2D5527D2
:14018A00436004C04A2D55274C7F5070A42ECB9903C0552707
:14019E004C6004C04A2D5527437F5070A42ECA9903C05527F4
:1401B200406304C04A2D55274F7C5070A42EC89903C05527E2
:1401C600406C04C04A2D55274F735070A42E45BBD4CF08952E
:00000001FF