:060000000A128A11DE2D38
:100BBC0083010A128A110B2F803083169F002F306D
:100BCC00850007308900813083129F000800F401F2
:100BDC00F501701CF72D7208F4070318F50A730859
:100BEC00F5070310F20DF30D0310F10CF00C710866
:100BFC007004031DEF2D7508F1007408F000080057
:100C0C00F400C730831203139F057408F20003101D
:100C1C00F20D0310F20D0310720D9F044130F3001E
:100C2C00EE30F200F20B182EF30B182E6400831228
:100C3C0003131F151F19202E1E08F100F001831637
:100C4C001E08F0070318F10A0800FA01FB017708E7
:100C5C0076040319502EFC01FC0AF71B392E0310E5
:100C6C00F60DF70D322E0310FA0DFB0D77087902F5
:100C7C00031D422E76087802031C4C2E7608F802CF
:100C8C007708031CF903F9027A140310F70CF60C1D
:100C9C00FC0B392E7B08F7007A08F60008000130AF
:100CAC00E8260A128A110D30F400FB30F300F30B26
:100CBC005D2EF40B5D2E622E0800F2000F308614B0
:100CCC0086057208F0398604D2260A128A110F3072
:100CDC0008278605720EF0398604D22E01270A12D7
:100CEC008A118316023001270A128A11F50004308A
:100CFC00F400BA30F300F30B812EF40B812EF50BBC
:100D0C00812E6400FA260A128A11D2260A128A113E
:100D1C002730F400F530F300F30B922EF40B922EE7
:100D2C000F300827860530308604D2260A128A1125
:100D3C00D630F300A12EA22EF30BA02E6400FA26BF
:100D4C000A128A11D2260A128A110D30F400FB30D5
:100D5C00F300F30BAF2EF40BAF2EB42E0F3008278D
:100D6C0086058616D2260A128A110D30F400FB3045
:100D7C00F300F30BBF2EF40BBF2EC42E2830E82645
:100D8C000A128A110C30E8260A128A110130E82660
:100D9C000A128A110630E82E04300614F1003D3098
:100DAC00F000F00BD72EF10BD72EDC2E08270430D9
:100DBC000610F1003D30F000F00BE22EF10BE22EAC
:100DCC00E72E0800F20008270F30861086057208FF
:100DDC00F0398604D2260A128A110F3008278605AC
:100DEC00720EF0398604D22E0F308312031386054F
:100DFC003030860408000610861006128612061380
:100E0C00861308008312031308000A128A11E225C4
:100E1C000A128A110A128A1174260A128A110A12EB
:100E2C008A1155260A128A1107300A128A110626CF
:100E3C000A128A1171088312AD007008AC00E830F8
:100E4C00F6000330F7002D08F9002C08F8000A1200
:100E5C008A112B260A128A117708AB007608AA0091
:100E6C006430F600F7012B08F1002A08F000183066
:100E7C00F200FC30F3000A128A11ED250A128A11D5
:100E8C002C087007F8002D0803182D0A7107F900BB
:100E9C000A128A112B260A128A117708A9007608E1
:100EAC00A8000A30F600F7012B08F1002A08F00020
:100EBC001830F200FC30F3000A128A11ED250A12E8
:100ECC008A117008A0007108A1002908F1002808F7
:100EDC00F0009C30F200FF30F3000A128A11ED256D
:100EEC000A128A1170082007A20071080318710AEF
:100EFC002107A3002C082207F8002D0803182D0A3F
:100F0C002307F9000A128A112B260A128A11770874
:100F1C00A7007608A6002708F1002608F000F63096
:100F2C00F200FF30F3000A128A11ED250A128A1121
:100F3C007108A5007008A4002908F1002808F00029
:100F4C009C30F200FF30F3000A128A11ED250A12D0
:100F5C008A117008A4070318A50A7108A5072B08A5
:100F6C00F1002A08F0001830F200FC30F3000A12ED
:100F7C008A11ED250A128A117008A4070318A50A14
:100F8C007108A5072C08A4070318A50A2D08A507A6
:100F9C002A08303E0A128A1163260A128A11831219
:100FAC0003132808303E0A128A1163260A128A118A
:100FBC00831203132608303E0A128A1163260A1282
:100FCC008A11831203132408303E0A128A116326F5
:100FDC000A128A110D3083120313A200AF30A10044
:100FEC00C130A000A00BF82FA10BF82FA20BF82FEB
:040FFC006400152F49
:02400E0072FF3F
:00000001FF
