:040000000C948400D8
:14008C001201150118011B011E012101240127012A012D011B
:1400A00030013301360139013C0150524F4752414D20444578
:1400B4004D4F2050454E545255204558454D504C4946494398
:1400C80041524541204D4F44554C204445204C5543525520F6
:1400DC0041204D4F44554C554C5549204750494F202D2041F2
:1400F000464552454E54204C41424F5241544F52554C554933
:03010400203100A7
:14010800CFEFD0E1CDBFDEBFC051D0400AEA08830024E0E0C7
:14011C00F1E011E0E030F10711F00192FBCF0083E7E0F1E08C
:14013000A0E0B1E011E0E730F10721F0C89531960D92F9CF0E
:140144000E94F500FFCF22242BBA2ABA28BA27BA25BA8FEF13
:1401580084BB22BA21BA23B822B8209262002092610020920F
:14016C006500209264000895F89422242CBE20926D00E5DFC8
:14018000222425BE20926A002ABE29BE27BE20927D00789437
:1401940008950E944A0124972C803D804E805F802882398297
:1401A8004A825B8281E090E0A0E0B0E0288039804A805B80B3
:1401BC00281A390A4A0A5B0A2C823D824E825F8280E090E003
:1401D000A0E0B0E0288039804A805B80281639064A065B06D7
:1401E400D9F628960895AA244AEA50E0C1DF4EC04A2D55270A
:1401F8004030E0E05E070CF43DC08EE090E0841795070CF44C
:14020C0037C08CE890E0FA01EE0FFF1FE80FF91F2790369061
:14022000F101099481E085BB29C082E085BB26C084E085BB85
:1402340023C088E085BB20C080E185BB1DC080E285BB1AC051
:1402480080E485BB17C080E885BB14C080E485BB11C080E2D4
:14025C0085BB0EC080E185BB0BC088E085BB08C084E085BB00
:1402700005C082E085BB02C081E085BBA3948EE08A1508F470
:14028400AA2400E010E220E030E083DFB1CF08953A932A93AD
:060298001A930A93089579
:00000001FF