:060000000A128A110C280F
:10000800FE00030EF0000A08F1000A128A119C2A69
:100018000A128A11AD2A6C210A128A118821290B29
:100028001B28203094200A128A11203037280A30E1
:10003800F200F3012408F5002308F400A6200A12B0
:100048008A117208303E94200A128A110A30F2008E
:10005800F30188212408F5002308F400D0200A12AF
:100068008A117208303E94200A128A113A3094207C
:100078000A128A1188212908023A031D49282030CA
:1000880094200A128A11203065280A30F200F30100
:100098002608F5002508F400A6200A128A1172081D
:1000A800303E94200A128A110A30F200F3018821A6
:1000B8002608F5002508F400D0200A128A117208D3
:1000C800303E94200A128A113A3094200A128A117A
:1000D80088212908033A031D7728203094200A1222
:1000E8008A11203094280A30F200F3012808F5001C
:1000F8002708F400A6200A128A117208303E9420BC
:100108000A128A110A30F200F30188212808F50042
:100118002708F400D0200A128A117208303E942869
:10012800F30088210F30861486057308F039860499
:100138004C210A128A110F3088218605730EF03976
:1001480086044C29A101A201730872040319CB2863
:10015800A001A00AF31BB4280310F20DF30DAD287B
:100168000310A10DA20D73087502031DBD287208A6
:100178007402031CC7287208F4027308031CF503F1
:10018800F50221140310F30CF20CA00BB42822087A
:10019800F3002108F2000800730872040319EF281D
:1001A800F601F60AF31BDC280310F20DF30DD5282F
:1001B80073087502031DE22872087402031CEB28F9
:1001C8007208F4027308031CF503F5020310F30C1C
:1001D800F20CF60BDC287508F3007408F20008002E
:1001E800831281210A128A118316343081210A125E
:1001F8008A11F500F130F400F40B0029F50B002901
:1002080005297A210A128A114C210A128A1108300A
:10021800F500C930F400F40B0F29F50B0F29142948
:100228007A210A128A114C210A128A116330F400C9
:10023800F40B1C291F297A210A128A114C210A124F
:100248008A110330F5009730F400F40B2929F50BD7
:1002580029292E290F308821860586164C210A1255
:100268008A110330F5009730F400F40B3929F50BA7
:1002780039293E2928305A210A128A110C305A216C
:100288000A128A1101305A210A128A1106305A2993
:1002980010300614F200F20B4F2964008821103048
:1002A8000610F200F20B562964000800F3008821BA
:1002B8000F30861086057308F03986044C210A121F
:1002C8008A110F3088218605730EF03986044C296F
:1002D80001305A210A128A110330F5009730F400D0
:1002E800F40B7429F50B7429792908000F3083124F
:1002F800031386053030860408000610861006129F
:1003080086120613861308008312031308000730A9
:10031800F701831689009F000A128A11F4200A1235
:100328008A110A128A11B9220A128A11F708031DC2
:10033800AC29831203130918332AF701F70A09189D
:10034800332A77080A128A116D220A128A11A32900
:1003580083120313891CB729D12977080A128A1135
:100368006D220A128A118918C629B129F80A0319B7
:10037800F90A332AFA0A0319FB0A332AAC0A0319C1
:10038800AD0A332A7708013A0319BA29033A03193F
:10039800BE29013A0319C229332A091DDA29152A67
:1003A80077080A128A116D220A128A1109190A2A73
:1003B800D4292D082C04031DE5293B30AC00AD01E0
:1003C800332A0130AC020030031CAD03AD02332ADE
:1003D8007B087A04031DF4293B30FA00FB01332A19
:1003E8000130FA020030031CFB03FB02332A7908B0
:1003F8007804031D032A1730F800F901332A013065
:10040800F8020030031CF903F902332A7708013A8D
:100418000319FB29033A0319EC29013A0319DD29C9
:10042800332A091C1E2A332A77080A128A116D22D8
:100438000A128A110918282A182A0230242A033095
:10044800F700332AF701332A7708013A0319212ADA
:10045800033A0319232A013A0319262A332A77086B
:100468000A128A116D220A128A112B082A04031D06
:10047800502A7908A4007808A3007B08A6007A0807
:10048800A5002D08A8002C08A700A9010A128A11A6
:100498000F200A128A119A292B03F43003192A060D
:1004A800031D9A29770803199A297908A40078085E
:1004B800A3007B08A6007A08A5002D08A8002C0830
:1004C800A7007708A9000A128A110F200A128A11B8
:1004D8009A29F2002B08033AE83003192A06031D6B
:1004E8007C2AF2080319AC0A0319AD0AAA01AB0168
:1004F8002C083C3A2D04031D882AF2080319FA0A2D
:100508000319FB0AAC01AD017A083C3A7B04031DD0
:10051800942AF2080319F80A0319F90AFA01FB01E7
:100528007808183A7904031D0800F801F901080051
:100538000B1DA62A08308312031381000B11AA0A87
:100548000319AB0A71088A00700E8300FE0E7E0E36
:100558000900F801F901FA01FB01AA01AB01AC019C
:10056800AD0183010A128A118B29BA2AC130831678
:0A057800031381058B168B17080092
:02400E0072FF3F
:00000001FF
