:100000000A128A11CF2B00308A000408840A820762
:1000100000343F343F343F340034573445344434A3
:100020000034543455344534003446345234493461
:1000300000344D344F344E340034533455344E3440
:100040000034533441345434003454344834553437
:0E005000003441344D34003450344D3400340B
:10079E00A001A101A201A301A40183010A128A11E1
:1007AE00E42B831603133130071687159300803020
:1007BE00940028308312940008000A128A119026A1
:1007CE000A128A110A128A11D8230A128A110830C3
:1007DE00F8002030F9003B30FA0000300A128A117E
:1007EE00A5240A128A110C30F800F9000630FA001E
:1007FE000F300A128A11F0240A128A110A128A1173
:10080E0054240A128A110A128A11C3250A128A1155
:10081E000A128A1129240A128A110A128A113F25F4
:10082E000A128A111A3083120313A7005E30A60033
:10083E008630A500A50B212CA60B212CA70B212C55
:10084E006400052C2130F1000430F2000330F30176
:10085E003F270A128A112208CB270A128A119724DF
:10086E000A128A11F80020080F397807A200C4274F
:10087E000A128A1197240A128A11F80020080F39D9
:10088E007807A3002408CB270A128A119724F800B0
:10089E0020080F397807A40021342130F1000330ED
:1008AE00F2000030F3013F270A128A112108A0003E
:1008BE000A30F000200E0F39073997240A128A11D8
:1008CE00F80020080F397807A1002208CB270A125A
:1008DE008A1197240A128A11F80020080F39780716
:1008EE00A200231F8B2CA31E7F2CA401A40A802CF4
:1008FE00A401C4270A128A1101399724F80020088E
:10090E000F397807A3002134C4270A128A119724BD
:10091E00F80020080F397807A3000230A400213414
:10092E00F200F10170087218F1070310F00D0310B8
:10093E00F20CF208031D992C71080800FD000A3014
:10094E00F0007A085D260A128A11FB000A30F000C8
:10095E007A0842260A128A11FC007C0EF0397B04BA
:10096E00A1000A30F00079085D260A128A11FB00F8
:10097E000A30F000790842260A128A11FC007C0E19
:10098E00F0397B04A2000A30F00078085D260A12C6
:10099E008A11FB000A30F000780842260A128A11EA
:1009AE00FC007C0EF0397B04A300E22C2317EA2C0A
:1009BE006030A304EA2C7D08003A0319DD2C013ABD
:1009CE000319DF2CEA2C2130F1000330F200003045
:1009DE00162FFD000A30F0007A085D260A128A11E1
:1009EE00FB000A30F0007A0842260A128A11FC0037
:1009FE007C0EF0397B04A1000A30F0007D085D26E4
:100A0E000A128A11FB000A30F0007D0842260A12F3
:100A1E008A11FC007C0EF0397B04A2000A30F00033
:100A2E0078085D260A128A11FB000A30F000780859
:100A3E0042260A128A11FC007C0EF0397B04A300B8
:100A4E000A30F00079085D260A128A11FB000A307E
:100A5E00F000790842260A128A11FC007C0EF03949
:100A6E007B04A4002130F1000430F2000330162F75
:100A7E00F500C03004270A128A110A30F000F72759
:100A8E000A128A1142260A128A11303E30260A12A2
:100A9E008A110A30F000F7270A128A115D260A120F
:100AAE008A11303E30260A128A112F3030260A1251
:100ABE008A110A30F000F1270A128A1142260A1210
:100ACE008A11303E30260A128A110A30F000F127C0
:100ADE000A128A115D260A128A11303E30260A1237
:100AEE008A112F3030260A128A110A30F000EB27B5
:100AFE000A128A1142260A128A11303E30260A1232
:100B0E008A110A30F000EB270A128A115D260A12AA
:100B1E008A11303E30260A128A11203030260A12EF
:100B2E008A117508840083130008013A0319B32D46
:100B3E00033A0319B52D013A0319B72D073A0319D4
:100B4E00B92D013A0319BB2D033A0319BD2D013AF4
:100B5E000319BF2DC12D08001130792E0930792EC1
:100B6E000530792E1D30792E0D30792E1930792ED3
:100B7E001530792E0130792EF500B6270A128A111A
:100B8E000A30F000DF270A128A1142260A128A1151
:100B9E00303E30260A128A110A30F000DF270A1280
:100BAE008A115D260A128A11303E30260A128A11E7
:100BBE003A3030260A128A110A30F000E5270A125E
:100BCE008A1142260A128A11303E30260A128A11E2
:100BDE000A30F000E5270A128A115D260A128A11E0
:100BEE00303E30260A128A113A3030260A128A1105
:100BFE000A30F000750884008313000842260A129A
:100C0E008A11303E30260A128A110A30F000750819
:100C1E008400831300085D260A128A11303E3026A6
:100C2E000A128A11203030260A128A117508033EE4
:100C3E00840083130008003A03192A2E013A03197F
:100C4E002C2E2E2E08002130792E2430792E48306D
:100C5E00302EF200FD270F30861486057208F0390B
:100C6E008604EE260A128A110F30FD278605720EB3
:100C7E00F0398604EE2EF100F301700803195B2E95
:100C8E00F201F20AF01B4E2E0310F00D482E031047
:100C9E00F30D70087102031C582E7008F1027314C4
:100CAE000310F00CF20B4E2E73080800F200083001
:100CBE00F300F4017208F10007300310F10CFF3E4F
:100CCE000310031D652E740D7104F4000310F20D54
:100CDE0070087402031C752E7008F402F30B612E5B
:100CEE0074080800F300730884000A128A110320A6
:100CFE000A128A11003803190800730884000A12B8
:100D0E008A1103200A128A1130260A128A11F30A56
:100D1E007A2ED8270A128A1183160230D8270A1281
:100D2E008A11F5000430F400BA30F300F30B9D2E57
:100D3E00F40B9D2EF50B9D2E6400D1270A128A11FD
:100D4E00EE260A128A112730F400F530F300F30B69
:100D5E00AE2EF40BAE2E0F30FD27860530308604F6
:100D6E00EE260A128A11D630F300BD2EBE2EF30BDC
:100D7E00BC2E6400D1270A128A11EE260A128A119D
:100D8E000D30F400FB30F300F30BCB2EF40BCB2E17
:100D9E00D02E0F30FD2786058616EE260A128A11F2
:100DAE000D30F400FB30F300F30BDB2EF40BDB2ED7
:100DBE00E02E283004270A128A110C3004270A125A
:100DCE008A11013004270A128A110630042F0430CA
:100DDE000614F1003D30F000F00BF32EF10BF32E64
:100DEE00F82EFD2704300610F1003D30F000F00B18
:100DFE00FE2EF10BFE2E032F0800F200FD270F3002
:100E0E00861086057208F0398604EE260A128A11BB
:100E1E000F30FD278605720EF0398604EE2EF50092
:100E2E0088270A128A11D0307A270A128A110318DB
:100E3E00172F75087A270A128A11F601F701720820
:100E4E00F300F40174087702031D2F2F7308760246
:100E5E0003183E2F76087107F300840083130008F1
:100E6E007A270A128A11F60A0319F70A262F982FE3
:100E7E00F50088270A128A11D0307A270A128A11B1
:100E8E000318402F75087A270A128A119F270A1213
:100E9E008A11D1307A270A128A117108840090279C
:100EAE000A128A1183138000F601F60AF7017308FD
:100EBE007702031D642F720876020318762FAD2772
:100ECE000A128A1176087107F400740884009027BC
:100EDE000A128A118000F60A0319F70A5E2FA52757
:100EEE000A128A11982FF0007008831293008C1D3D
:100EFE007E2F8C118316111B862F031008000314EE
:100F0E00080083160313111483128C1D8B2F8C1162
:100F1E0008008316911583128C1D922F8C111308C5
:100F2E0008008316111583128C1D9A2F8C11080040
:100F3E00911483128C1DA02F8C110800831691160C
:100F4E00111683128C1DA82F8C1108008316031303
:100F5E009112111683128C1DB12F8C1108000130C5
:100F6E0004270A128A110D30F400FB30F300F30B44
:100F7E00BE2FF40BBE2FC32F08002308A0000A308B
:100F8E00F000200E0F390800A0000A30F000200EED
:100F9E000F3908000F308312031386053030860494
:100FAE000800061086100612861206138613080015
:100FBE007508023E84008313000808007508013E80
:100FCE0084008313000808007508033E8400831311
:100FDE00000808007508023E84008313000808000C
:100FEE007508013E84008313000808008312031362
:020FFE000800E9
:02400E0072FF3F
:00000001FF
