:060000000A128A1110280B
:100008008316031331300716871593008030940048
:10001800283083129400080055308313840066301A
:100028000A128A15AD220A128A11A0308400F03013
:100038000A128A15AD221430E6000530E701E800FF
:100048000030E90183010A128A15EB2AF500C03055
:100058000A128A15ED230A128A110A30F000D227F3
:100068000A128A1126220A128A11303ED5260A124D
:100078008A110A30F000D2270A128A1141220A1284
:100088008A11303ED5260A128A112F30D5260A1237
:100098008A110A30F000CC270A128A1126220A1285
:1000A8008A11303ED5260A128A110A30F000CC2770
:1000B8000A128A1141220A128A11303ED5260A12E2
:1000C8008A112F30D5260A128A110A30F000C62765
:1000D8000A128A1126220A128A11303ED5260A12DD
:1000E8008A110A30F000C6270A128A1141220A1220
:1000F8008A11303ED5260A128A112030D5260A12D6
:100108008A117508840083130008013A0319A0288E
:10011800033A0319A228013A0319A428073A031934
:10012800A628013A0319A828033A0319AA28013A6C
:100138000319AC28AE2808009E30FB2E9630FB2E03
:100148009230FB2EAA30FB2E9A30FB2EA630FB2EC7
:10015800A230FB2E8E30FB2EB6005C08F1005B0847
:10016800F0000A30F200F301B9230A128A1171086B
:10017800B1007008B0005D08B0070318B10A5E0846
:10018800B1075608F1005508F0000A30F200F301F3
:10019800B9230A128A115808F1005708F0000A30EA
:1001A800F200F301B9230A128A117108AD00700830
:1001B800AC005908AC070318AD0A5A08AD070A3055
:1001C800F0003608023E8400000826220A128A112E
:1001D800A2000A30A301F0003608023E840000089D
:1001E80041220A128A112308F1002208F0000A307D
:1001F800F200F301B9230A128A110A30F000360816
:10020800013E8400000826220A128A11A4000A303E
:10021800A501F0003608013E8400000841220A12B8
:100228008A11A600A7012508F1002408F0000A3069
:10023800F200F301B9230A128A117108AF0070089D
:10024800AE002608AE070318AF0A2708AF070A3022
:10025800F00036088400000826220A128A11A80035
:100268000A30A901F00036088400000841220A1269
:100278008A11AA00AB012908F1002808F0000A3009
:10028800F200F301B9230A128A117108B300700849
:10029800B2002A08B2070318B30A2B08B3072F08BD
:1002A8002D06031D59292E082C0603196429330825
:1002B80078270A128A113C30B4070318B50A68294E
:1002C800330878270A128A1169083502031D6E2936
:1002D80068083402031C080077300A128A15C02205
:1002E8000A128A110A128A15CC250A128A11E1000B
:1002F8000A30F0006108023E8400000826220A1233
:100308008A11D5000A30D601F0006108023E840047
:10031800000841220A128A110A30F0006108013EE1
:100328008400000826220A128A11D7000A30D80150
:10033800F0006108013E8400000841220A128A1177
:10034800D9000A30DA01F00061088400000826228A
:100358000A128A11DB000A30DC01F000610884000F
:1003680000084122DD00DE010800F500EB260A1234
:100378008A110A30F000BA270A128A1126220A12B4
:100388008A11303ED5260A128A110A30F000BA279F
:100398000A128A1141220A128A11303ED5260A12FF
:1003A8008A113A30D5260A128A110A30F000C0277D
:1003B8000A128A1126220A128A11303ED5260A12FA
:1003C8008A110A30F000C0270A128A1141220A1243
:1003D8008A11303ED5260A128A113A30D5260A12D9
:1003E8008A110A30F0007508840083130008262259
:1003F8000A128A11303ED5260A128A110A30F000F4
:10040800750884008313000841220A128A11303EBD
:10041800D5260A128A112030D5260A128A117508A3
:10042800033E840083130008003A0319202A013A86
:100438000319222A242A0800AE30FB2EB130FB2EE5
:100448004830D52EF100F301700803193F2AF20154
:10045800F20AF01B322A0310F00D2C2A0310F30DB8
:1004680070087102031C3C2A7008F102731403100F
:10047800F00CF20B322A73080800F2000830F3007F
:10048800F4017208F10007300310F10CFF3E03106D
:10049800031D492A740D7104F4000310F20D70084D
:1004A8007402031C592A7008F402F30B452A7408D5
:1004B8000800D8270230AA01AB01DB270A128A11EB
:1004C8000130DB270A128A110230DB270A128A114F
:1004D80071088312AF007008AE00E830F6000330F0
:1004E800F7002F08F9002E08F80012270A128A11BF
:1004F80056270A128A113C270A128A11B9230A12AE
:100508008A112E087007F8002F0803182F0A7107A0
:10051800F90012270A128A1145270A128A113C2764
:100528000A128A11B9230A128A117008A0007108E8
:10053800A1004D270A128A11B9230A128A118C27A1
:100548000A128A112E082207F8002F0803182F0A0A
:100558002307F90012270A128A1164270A128A113E
:10056800B9230A128A117108AD007008AC004D2732
:100578000A128A11B9230A128A1170085E270A1210
:100588008A113C270A128A11B9230A128A11712783
:100598000A128A112E08AC070318AD0A2F08822701
:1005A8000A128A11B9230A128A117108A90070085F
:1005B800A80095270A128A11B9230A128A11A527B9
:1005C8000A128A119D270A128A11B9230A128A115E
:1005D800A5270A128A112C08A8070318A90A2D08AA
:1005E800A90700302902653003192802031C022BD1
:1005F80001300A128A15C0220A128A110130DB273B
:100608000A128A1171088312B1007008B000E8302C
:10061800F6000330F7003108F9003008F800122717
:100628000A128A1156270A128A113C270A128A11BD
:10063800B9230A128A1130087007F8003108031824
:10064800310A7107F90012270A128A1145270A127E
:100658008A113C270A128A11B9230A128A117008D2
:10066800A0007108A1004D270A128A11B9230A12A5
:100678008A118C270A128A1130082207F8003108DB
:100688000318310A2307F90012270A128A1164276E
:100698000A128A11B9230A128A117108AD0070086A
:1006A800AC004D270A128A11B9230A128A11700860
:1006B8005E270A128A113C270A128A11B9230A12E4
:1006C8008A1171270A128A113008AC070318AD0A7B
:1006D800310882270A128A11B9230A128A1171086D
:1006E800AB007008AA0095270A128A11B9230A12CA
:1006F8008A11B3270A128A119D270A128A11B9236F
:100708000A128A11B3270A128A112C08AA07031899
:10071800AB0A2D08AB0700302B02653003192A02FB
:10072800031C080046300A128A15C0220A128A11D0
:100738001030D827A4002730A5000130A4020030CB
:10074800031CA503A502240A0319250A0319080096
:100758006430A600A7010130A602031CA703260ADD
:100768000319270A0319A12BAF2BF401F501701CFB
:10077800C32B7208F4070318F50A7308F50703106A
:10078800F20DF30D0310F10CF00C71087004031D49
:10079800BB2B7508F1007408F0000800D300433A39
:1007A800031D1D2C0230F801F901FA010A128A15FD
:1007B800D8260A128A110530F8000E30F9000230E6
:1007C800FA0008300A128A152F270A128A11CF0157
:1007D800D001D827D101D201D8274F08A000A030D6
:1007E8000310A00D0310A00D2007A1005108210738
:1007F800A200840083138001D10A0319D20A520887
:10080800803AFF0080307F02031D0C2C0430510217
:10081800031CF02BD827CF0A0319D00A5008803AB6
:10082800FF0080307F02031D1B2C14304F02031C75
:10083800ED2BD82753082F3A031DEB2CEB260A1271
:100848008A116E30FB260A128A117B260A128A1137
:100858007408D827AE007308AD00D5260A128A118D
:100868007B260A128A117408D827B0007308AF00D3
:100878002F08D5260A128A11EB260A128A113B3054
:10088800FB260A128A117B260A128A117408D827B5
:10089800B2007308B100D5260A128A117B260A1203
:1008A8008A117408D827B4007308B3003308D52612
:1008B8000A128A11EB260A128A112330FB260A1221
:1008C8008A117B260A128A117408D827B600730881
:1008D800B500D5260A128A117B260A128A117408D5
:1008E800D827B8007308B700D5260A128A11D82766
:1008F8002E08F1002D08F0000A30F200F301B923A8
:100908000A128A117108C6007008C5002F08C507A9
:100918000318C60A3008C6073208F1003108F0008B
:100928000A30F200F301B9230A128A117108C800CB
:100938007008C7003308C7070318C80A3408C8076F
:100948003608F1003508F0000A30F200F301B92347
:100958000A128A117108CA007008C9003708C90745
:100968000318CA0A3808CA074608803AFF008030C8
:100978007F02031DC12C183045020318E82CD82724
:100988004808803AFF0080307F02031DCD2C3C30A0
:1009980047020318E82CD8274A08803AFF0080301D
:1009A8007F02031DD92C3C3049020318E82CD827B4
:1009B8004508F8004708F9004908FA0002300A1209
:1009C8008A15D8260A128A11EB260A128A11D82704
:1009D80053082A3A031D052EEB260A128A117F3086
:1009E800FB260A128A117B260A128A117408D82754
:1009F800BA007308B9003908D5260A128A110730D7
:100A0800D827A2005830A1005E30A000A00B0A2D04
:100A1800A10B0A2DA20B0A2D112D7B260A128A1171
:100A28007408D827BC007308BB003B08D5260A12F7
:100A38008A110730D827A2005830A1005E30A000E4
:100A4800A00B242DA10B242DA20B242D2B2DEB263E
:100A58000A128A115B30FB260A128A117B260A12B7
:100A68008A117408D827BE007308BD003D08D52632
:100A78000A128A110730D827A2005830A1005E3028
:100A8800A000A00B452DA10B452DA20B452D4C2DEB
:100A98007B260A128A117408D827C0007308BF0081
:100AA8003F08D5260A128A110730D827A2005830E5
:100AB800A1005E30A000A00B5F2DA10B5F2DA20B43
:100AC8005F2D662DEB260A128A116530FB260A1265
:100AD8008A117B260A128A117408D827C200730863
:100AE800C1004108D5260A128A110730D827A2006A
:100AF8005830A1005E30A000A00B802DA10B802DE6
:100B0800A20B802D872D7B260A128A117408D827FC
:100B1800C4007308C3004308D5260A128A11073097
:100B2800D827A2005830A1005E30A000A00B9A2D53
:100B3800A10B9A2DA20B9A2DA12DD8273A08F100C6
:100B48003908F0000A30F200F301B9230A128A11B9
:100B58007108CC007008CB003B08CB070318CC0AFF
:100B68003C08CC073E08F1003D08F0000A30F200CE
:100B7800F301B9230A128A117108CE007008CD005A
:100B88003F08CD070318CE0A4008CE074208F100F7
:100B98004108F0000A30F200F301B9230A128A1161
:100BA8007108AC007008AB004308AB070318AC0A27
:100BB8004408AC074C08803AFF0080307F02031DD0
:100BC800E72D1F304B020318022ED8274E08803A13
:100BD800FF0080307F02031DF32D0C304D020318F7
:100BE800022ED8274D08F8002B08F9000230FA0029
:100BF8004B080A128A152F270A128A11EB260A12A5
:100C08008A11D82753082B3A031D3F2EEB260A12C8
:100C18008A110030D82769023C300319680203188A
:100C2800182EE80A0319E90A5130FB260A128A111C
:100C3800AC270A128A150F260A128A111030D827F3
:100C4800A3002730A4000130A3020030031CA40332
:100C5800A402230A0319240A03193F2E0A30A50007
:100C6800A6010130A502031CA603250A0319260ABA
:100C78000319272E352E53082D3A031D0800EB269D
:100C88000A128A110030D827690204300319680251
:100C9800031C542E0130E8020030031CE903E9026A
:100CA8005130FB260A128A11AC270A128A150F2620
:100CB8000A128A111030D827A7002730A80001305F
:100CC800A7020030031CA803A802270A0319280A50
:100CD800031908000A30A900AA010130A902031C5F
:100CE800AA03290A03192A0A0319632E712E7830D8
:100CF800F500783A031D862E0A128A1529240A124D
:100D08008A117C2E7508303A031D8D2EF301F401EB
:100D180008007508313A031D952EF301F30AF40112
:100D280008007508323A031D9D2E0230F300F401C5
:100D380008007508333A031DA52E0330F300F401AB
:100D480008007508343A031DAD2E0430F300F40191
:100D580008007508353A031DB52E0530F300F40177
:100D680008007508363A031DBD2E0630F300F4015D
:100D780008007508373A031DC52E0730F300F40143
:100D880008007508383A031DCD2E0830F300F40129
:100D980008007508393A031D8A2E0930F300F4015A
:100DA8000800F200D8270F30881488057208F03937
:100DB80088040A128A15D7230A128A110F30D827F5
:100DC8008805720EF03988040A128A15D72B01306B
:100DD8000A128A15ED230A128A110D30F400FB302D
:100DE800F300F30BF52EF40BF52EFA2E0800F300A2
:100DF800730884000A128A1500200A128A11003822
:100E080003190800730884000A128A1500200A12C0
:100E18008A11D5260A128A11F30AFC2EFA01FB015F
:100E2800770876040319372FFC01FC0AF71B202FDB
:100E38000310F60DF70D192F0310FA0DFB0D7708A7
:100E48007902031D292F76087802031C332F7608B0
:100E5800F8027708031CF903F9027A140310F70C57
:100E6800F60CFC0B202F7B08F7007A08F600080028
:100E78003708F1003608F0001830F200FC30F300B3
:100E880008007708B5007608B4000A30F600F701C4
:100E980008003508F1003408F0009C30F200FF30FB
:100EA800F30008007708B7007608B6006430F6004B
:100EB800F7010800AC070318AD0A7108AD07080070
:100EC8007708B3007608B2003308F1003208F00062
:100ED800F630F200FF30F30008007008AC07031882
:100EE800AD0A7108AD070800B5003208B400300833
:100EF800B4023108031CB503B5020800AD07370872
:100F0800F1003608F000E830F2000330F300080082
:100F180070082007A20071080318710A2107A300AE
:100F280008003508F1003408F0006430F200F301DD
:100F380008003308F1003208F0000A30F200F3012B
:100F480008007008A8070318A90A7108A90708006B
:100F5800831203136908F9006808F800080070088C
:100F6800AA070318AB0A7108AB0708007508023E08
:100F780084008313000808007508013E8400831369
:100F8800000808007508033E840083130008080061
:100F98007508023E84008313000808007508013EA6
:100FA8008400831300080800831203130800F40068
:100FB800C730831203139F057408F2000310F20D63
:100FC8000310F20D0310720D9F044130F300EE3050
:100FD800F200F20BED2FF30BED2F640083120313D5
:100FE8001F151F19F52F1E08F100F00183161E08A2
:100FF800F0070318F10A080008308A000408840A78
:1010080082070034613472346434653420347534B2
:101018006934743465342034633475346D34203461
:1010280061347234643465340034573472346F3444
:101038006E3467342034463475346E346334743413
:1010480069346F346E340034533465347434203466
:101058007334653463346F346E34643473340034F9
:10106800573472346F346E346734203449346E34F4
:101078007034753474340034533465347434203423
:101088006D3469346E3475347434653400346134C5
:101098006C34613472346D346134203466347534A0
:1010A8006D34003449346E347434653472347634B3
:1010B80061346C342034003453346534743420344F
:1010C8006D346F346E34743468340034533465349A
:1010D80074342034793465346134723400345334D0
:1010E80065347434203468346F34753472340034A1
:1010F80073346F346E346534723469346534003453
:1011080053346534743420346434613479340034AD
:1011180061346C34613472346D34613400343F347A
:101128003F343F3400345734453444340034543465
:1011380055344534003446345234493400344D343F
:101148004F344E340034533455344E340034533411
:101158004134543400345434483455340034413420
:0A1168004D34003450344D3400348F
:10154E008601F03083168600811308006400800146
:10155E00840A0406031900340406AE2A803083166A
:10156E009F002F30850007308900813083129F0045
:10157E000800F9001430E600E7010A128A11EB2682
:10158E000A128A1579080A128A11FB260A128A157E
:10159E001030F5002730F6000130F5020030031C44
:1015AE00F603F602750A0319760A03190800643069
:1015BE00F700F8010130F702031CF803770A03194C
:1015CE00780A0319D32AE12A0A128A15B5220A12B9
:1015DE008A150A128A1579230A128A150A128A1195
:1015EE0004200A128A150A128A15A7220A128A15CF
:1015FE000A128A15CC250A128A15E1000A30F0006B
:10160E006108023E840000080A128A1126220A127C
:10161E008A15D5000A30D601F0006108023E84001A
:10162E0000080A128A1141220A128A150A30F000A5
:10163E006108013E840000080A128A1126220A124D
:10164E008A15D7000A30D801F0006108013E8400E7
:10165E0000080A128A1141220A128A15D9000A308C
:10166E00DA01F0006108840000080A128A112622AD
:10167E000A128A15DB000A30DC01F00061088400D2
:10168E0000080A128A1141220A128A15DD00DE01B3
:10169E000A128A11EB260A128A150A128A115D2283
:1016AE000A128A150A128A1510240A128A15D400F3
:1016BE00783A0319682B54080A128A11D2230A1297
:1016CE008A150A128A15CC250A128A15E0000A120A
:1016DE008A11B0200A128A150A128A156D250A126D
:1016EE008A15542BFF230A128A1583160230FF2304
:1016FE000A128A15F5000430F400BA30F300F30B29
:10170E00862BF40B862BF50B862B640006240A120F
:10171E008A15D7230A128A152730F400F530F30004
:10172E00F30B972BF40B972B0F300D2488053030CD
:10173E008804D7230A128A15D630F300A62BA72BBE
:10174E00F30BA52B640006240A128A15D7230A125E
:10175E008A150D30F400FB30F300F30BB42BF40BB1
:10176E00B42BB92B0F300D2488058816D7230A12F7
:10177E008A150D30F400FB30F300F30BC42BF40B81
:10178E00C42BC92B2830ED230A128A150C30ED23F9
:10179E000A128A150130ED230A128A150630ED2B36
:1017AE0004300814F1003D30F000F00BDC2BF10B8F
:1017BE00DC2BE12B0D2404300810F1003D30F0003D
:1017CE00F00BE72BF10BE72BEC2B0800F2000D24AE
:1017DE000F30881088057208F0398804D7230A1252
:1017EE008A150F300D248805720EF0398804D72B18
:1017FE0008108810081288120813881308000F307A
:10180E0083120313880530308804080083120313F3
:10181E0008007830F5006430F300F4017508783A6A
:10182E00031D272C29240A128A15F5000130F30214
:10183E000030031CF403F40274087304031D152C0A
:10184E00750808006A250610861406158615061AF0
:10185E00412C0730F2005830F1005E30F000F00BF2
:10186E00362CF10B362CF20B362C3D2C6A25061A33
:10187E0037343D2C861A542C0730F2005830F100C4
:10188E005E30F000F00B492CF10B492CF20B492C79
:10189E00502C6A25861A3834502C061B672C0730BC
:1018AE00F2005830F1005E30F000F00B5C2CF10BC2
:1018BE005C2CF20B5C2C632C6A25061B3934632CD2
:1018CE00861B7A2C0730F2005830F1005E30F000A3
:1018DE00F00B6F2CF10B6F2CF20B6F2C762C6A2504
:1018EE00861B2F34762C0614861006158615061ABE
:1018FE00912C0730F2005830F1005E30F000F00B02
:10190E00862CF10B862CF20B862C8D2C6A25061A52
:10191E0034348D2C861AA42C0730F2005830F10086
:10192E005E30F000F00B992CF10B992CF20B992CE8
:10193E00A02C6A25861A3534A02C061BB72C07302E
:10194E00F2005830F1005E30F000F00BAC2CF10BD1
:10195E00AC2CF20BAC2CB32C6A25061B3634B32CF4
:10196E00861BCA2C0730F2005830F1005E30F000B2
:10197E00F00BBF2CF10BBF2CF20BBF2CC62C6A2523
:10198E00861B2A34C62C0614861406118615061AD2
:10199E00E12C0730F2005830F1005E30F000F00B11
:1019AE00D62CF10BD62CF20BD62CDD2C6A25061A72
:1019BE003134DD2C861AF42C0730F2005830F10049
:1019CE005E30F000F00BE92CF10BE92CF20BE92C58
:1019DE00F02C6A25861A3234F02C061B072D0730A0
:1019EE00F2005830F1005E30F000F00BFC2CF10BE1
:1019FE00FC2CF20BFC2C032D6A25061B3334032D15
:101A0E00861B1A2D0730F2005830F1005E30F000C0
:101A1E00F00B0F2DF10B0F2DF20B0F2D162D6A253E
:101A2E00861B2D34162D0614861406158611061ADD
:101A3E00312D0730F2005830F1005E30F000F00B1F
:101A4E00262DF10B262DF20B262D2D2D6A25061A8D
:101A5E0043342D2D861A442D0730F2005830F100F4
:101A6E005E30F000F00B392DF10B392DF20B392DC4
:101A7E00402D6A25861A3034402D061B572D07300F
:101A8E00F2005830F1005E30F000F00B4C2DF10BEF
:101A9E004C2DF20B4C2D532D6A25061B3D34532D28
:101AAE00861B78340730F2005830F1005E30F000BB
:101ABE00F00B5F2DF10B5F2DF20B5F2D662D6A255E
:101ACE00861B2B34662D83120313080067086604E9
:101ADE00031D9C2DCC250A128A11B9210A128A15D2
:101AEE00A1250A128A112A200A128A151030F9002D
:101AFE002730FA000130F902031CFA03790A0319A0
:101B0E007A0A0319972D0A30FB00FC010130FB0203
:101B1E00031CFC037B0A03197C0A0319812D8D2DEE
:101B2E00143083120313E600E701FF30E607031CAF
:101B3E00E70308006230F1000430F2000330F301D5
:101B4E009D260A128A156308FA270A128A158F260D
:101B5E000A128A15F8005F080F397807E300F32799
:101B6E000A128A158F260A128A15F8005F080F3995
:101B7E007807E4006508FA270A128A158F26F800FE
:101B8E005F080F397807E50062346230F1000330E8
:101B9E00F2000030F3019D260A128A156208DF005A
:101BAE000A30F0005F0E0F3907398F260A128A1598
:101BBE00F8005F080F397807E2006308FA270A1267
:101BCE008A158F260A128A15F8005F080F397807D2
:101BDE00E300641F032EE41EF72DE501E50AF82D40
:101BEE00E501F3270A128A1501398F26F8005F08DE
:101BFE000F397807E4006234F3270A128A158F260C
:101C0E00F8005F080F397807E4000230E50062340F
:101C1E00FC01F91F282EFF30F000F1007908F300C7
:101C2E007808F2000A128A11B9230A128A1571086D
:101C3E00F9007008F8002D300A128A11D5260A1202
:101C4E008A150A30F000F1017908F3007808F200E5
:101C5E004A260A128A157008FC007C0803193E2ECB
:101C6E007C08303E0A128A11D5260A128A15F630E1
:101C7E00F0007C088F26FA0078087A07FB00303EC9
:101C8E000A128A11D52EF501F11F542EF009F10911
:101C9E00F00A0319F10AF501F50AF31F5D2EF20998
:101CAE00F309F20A0319F30A0130F506F601F701FA
:101CBE00710870040319822EF401F40AF11B6B2EC5
:101CCE000310F00DF10D642E0310F60DF70D7108D3
:101CDE007302031D742E70087202031C7E2E700890
:101CEE00F2027108031CF303F30276140310F10CD5
:101CFE00F00CF40B6B2E750803198A2EF609F709F2
:101D0E00F60A0319F70A7708F1007608F0000800C2
:101D1E00F200F10170087218F1070310F00D0310B4
:101D2E00F20CF208031D912E71080800F500C5276C
:101D3E000A128A15D030B7270A128A1503189E2E5A
:101D4E007508B7270A128A15DC270A128A15D130B0
:101D5E00B7270A128A1571088400D4270A128A1529
:101D6E0083138000F601F60AF70173087702031D4C
:101D7E00C22E720876020318D42EEA270A128A158A
:101D8E0076087107F40074088400D4270A128A15A5
:101D9E008000F60A0319F70ABC2EE2270A128A15EA
:101DAE00CD2FFD000A30F0007A080A128A11412266
:101DBE000A128A15FB000A30F0007A080A128A11FC
:101DCE0026220A128A15FC007C0EF0397B04E200F2
:101DDE000A30F00079080A128A1141220A128A1575
:101DEE00FB000A30F00079080A128A1126220A1224
:101DFE008A15FC007C0EF0397B04E3000A30F000FB
:101E0E0078080A128A1141220A128A15FB000A303A
:101E1E00F00078080A128A1126220A128A15FC008E
:101E2E007C0EF0397B04E400212F6417292F6030DB
:101E3E00E404292F7D08003A03191C2F013A0319D7
:101E4E001E2F292F6230F1000330F20000308E2F4A
:101E5E00FD000A30F0007A080A128A1141220A1295
:101E6E008A15FB000A30F0007A080A128A1126221F
:101E7E000A128A15FC007C0EF0397B04E2000A304F
:101E8E00F0007D080A128A1141220A128A15FB00FF
:101E9E000A30F0007D080A128A1126220A128A15CB
:101EAE00FC007C0EF0397B04E3000A30F000780869
:101EBE000A128A1141220A128A15FB000A30F0001A
:101ECE0078080A128A1126220A128A15FC007C0E44
:101EDE00F0397B04E4000A30F00079080A128A1106
:101EEE0041220A128A15FB000A30F00079080A1204
:101EFE008A1126220A128A15FC007C0EF0397B0408
:101F0E00E5006230F1000430F20003308E2FF50050
:101F1E00C5270A128A15D030B7270A128A15031858
:101F2E008F2F7508B7270A128A15F601F701720866
:101F3E00F300F40174087702031DA72F73087602CD
:101F4E000318B62F76087107F30084008313000878
:101F5E00B7270A128A15F60A0319F70A9E2FCD2FF4
:101F6E00F0007008831293008C1DBB2F8C1183160A
:101F7E00111BC32F0310080003140800831603134C
:101F8E00111483128C1DC82F8C1108008316111585
:101F9E0083128C1DCF2F8C1108008316911583127E
:101FAE008C1DD62F8C1113080800911483128C1DD2
:101FBE00DD2F8C11080083169116111683128C1DBD
:101FCE00E52F8C110800831603139112111683123C
:101FDE008C1DEE2F8C1108006408DF000A30F00013
:101FEE005F0E0F390800DF000A30F0005F0E0F3968
:021FFE000800D9
:02400E0072FF3F
:00000001FF
