:040000000C94460016
:14008C00CFEFD0E1CDBFDEBFC051D0400AEA08830024E0E044
:1400A000F1E011E0E030F10711F00192FBCF0083ECE8F0E0FD
:1400B400A0E0B1E010E0EC38F10721F0C89531960D92F9CF7F
:1400C8000E94A700FFCF22242BBA2ABA28BA27BA25BA8FEFDE
:1400DC0084BB22BA21BA23B822B8209262002092610020928C
:1400F0006500209264000895222420929A0020929B0086E09F
:1401040080939D0085E0809399002092980080E180939A00CE
:140118000895F89422242CBE20926D00D4DFE8DF222425BEB8
:14012C0020926A002ABE29BE27BE20927D007894089508957A
:1401400020909B0027FEFCCF00919C0008954427E4DF1BC09D
:14015400F5DF402F013309F441E0423309F442E0433309F4FB
:1401680044E0443309F448E0453309F440E1463309F440E295
:12017C00473309F440E4483309F440E845BBE4CF0895E6
:00000001FF
