:100000000A128A11CA2B00308A000408840A820767
:100010000034573472346F346E34673420344634CD
:1000200075346E346334743469346F346E34003430
:10003000573472346F346E346734203449346E343C
:0800400070347534743400348F
:1007940083010A128A11D42B8601F0308316860055
:1007A400811308000A128A11CE230A128A110A122E
:1007B4008A115A270A128A110A128A11C1240A12AA
:1007C4008A1183120313A5000A128A11E1270A125F
:1007D4008A118312031325080A128A11DC260A12CD
:1007E4008A118312031325080A128A112D260A126C
:1007F4008A11780883120313A2007708A1000D3A26
:1008040022040319DE2B0A128A11C1240A128A1146
:1008140083120313A5000A128A11DC260A128A1114
:100824008312031325080A128A1110260A128A1148
:1008340083120313A000653A0319DE2B0A128A11EE
:10084400C1240A128A1183120313A5000A128A1101
:10085400DC260A128A118312031325080A128A114C
:100864002D260A128A11780883120313A40077082C
:10087400A3000D3A24040319DE2B0A128A11C124A1
:100884000A128A1183120313A5000A128A11DC26A4
:100894000A128A118312031325083D3A0319A12C65
:1008A400AF2C2208F9002108F8002308F8070318E0
:1008B400F90A2408F9070A128A11A7260A128A11CA
:1008C400DE2B2208F9002108F8002308F802240886
:1008D400031CF903F9020A128A11A7260A128A11C3
:1008E400DE2B2208F1002108F0002408F30023087D
:1008F400F2000A128A11FC260A128A117108F90000
:100904007008F8000A128A11A7260A128A11DE2B2F
:100914002408F1002308F0002208F3002108F20063
:100924000A128A1115270A128A117108F90070082F
:10093400F8000A128A11A7260A128A11DE2B20084F
:100944002B3A0319532C063A0319632C023A031960
:100954008A2C573A0319732CC02C2508433A031DDB
:10096400B92C0A128A11E1270A128A11DE2BF50129
:10097400F6010A128A1179260A128A11DE2B6E30C8
:10098400F3006E3A031DCA2CCC240A128A11C22C1D
:10099400730808000D260610861406158615061A17
:1009A400E42C0730F2005830F1005E30F000F00B18
:1009B400D92CF10BD92CF20BD92CE02C0D26061ACC
:1009C4003734E02C861AF72C0730F2005830F10047
:1009D4005E30F000F00BEC2CF10BEC2CF20BEC2C59
:1009E400F32C0D26861A3834F32C061B0A2D0730F7
:1009F400F2005830F1005E30F000F00BFF2CF10BE8
:100A0400FF2CF20BFF2C062D0D26061B3934062D68
:100A1400861B1D2D0730F2005830F1005E30F000C7
:100A2400F00B122DF10B122DF20B122D192D0D2698
:100A3400861B2F34192D0614861006158615061AE2
:100A4400342D0730F2005830F1005E30F000F00B26
:100A5400292DF10B292DF20B292D302D0D26061AE7
:100A64003434302D861A472D0730F2005830F10007
:100A74005E30F000F00B3C2DF10B3C2DF20B3C2DC5
:100A8400432D0D26861A3534432D061B5A2D073067
:100A9400F2005830F1005E30F000F00B4F2DF10BF6
:100AA4004F2DF20B4F2D562D0D26061B3634562D89
:100AB400861B6D2D0730F2005830F1005E30F000D7
:100AC400F00B622DF10B622DF20B622D692D0D26B8
:100AD400861B7834692D0614861406118615061AA9
:100AE400842D0730F2005830F1005E30F000F00B36
:100AF400792DF10B792DF20B792D802D0D26061A07
:100B04003134802D861A972D0730F2005830F100C9
:100B14005E30F000F00B8C2DF10B8C2DF20B8C2D34
:100B2400932D0D26861A3234932D061BAA2D0730D9
:100B3400F2005830F1005E30F000F00B9F2DF10B05
:100B44009F2DF20B9F2DA62D0D26061B3334A62DAB
:100B5400861BBD2D0730F2005830F1005E30F000E6
:100B6400F00BB22DF10BB22DF20BB22DB92D0D26D7
:100B7400861B2D34B92D0614861406158611061A03
:100B8400D42D0730F2005830F1005E30F000F00B45
:100B9400C92DF10BC92DF20BC92DD02D0D26061A26
:100BA4004334D02D861AE72D0730F2005830F10077
:100BB4005E30F000F00BDC2DF10BDC2DF20BDC2DA4
:100BC400E32D0D26861A3034E32D061BFA2D07304B
:100BD400F2005830F1005E30F000F00BEF2DF10B15
:100BE400EF2DF20BEF2DF62D0D26061B3D34F62DC1
:100BF400861B6E340730F2005830F1005E30F0008E
:100C0400F00B022EF10B022EF20B022E092E0D26F2
:100C1400861B2B34092E831203130800F700433A72
:100C2400031D272EE127653477082D3A03192B2E4F
:100C34007708783A03192B2E77082F3A03192B2EAD
:100C4400F501F50AF6017926653477082B3A031D78
:100C5400162E77080800F900512EFA01492EFA01E0
:100C6400FA0A492E0230482E0330482E0430482E0A
:100C74000530482E0630482E0730482E0830482EBE
:100C84000930482EE1270A128A110D30FA00FB01BF
:100C9400742EF501F60179260A128A11472E790875
:100CA400303A03192F2E013A0319312E033A03194E
:100CB400342E013A0319362E073A0319382E013A15
:100CC40003193A2E033A03193C2E013A03193E2E16
:100CD4000F3A0319402E013A0319422E7A3A0319A6
:100CE400442E4B2E7B08F8007A08F7000800E12711
:100CF4000A128A117608003A0319872E852E1030BD
:100D0400902E0130902E1030902E7508003A031961
:100D1400812E013A0319832E852E0800F3007308EF
:100D240084000A128A1103200A128A110038031956
:100D34000800730884000A128A1103200A128A1117
:100D4400DC260A128A11F30A912EFC01F91FBC2E2B
:100D5400FF30F000F1007908F3007808F200FC2677
:100D64000A128A117108F9007008F8002D30DC2687
:100D74000A128A110A30F000F1017908F3007808A8
:100D8400F20015270A128A117008FC007C08031966
:100D9400D02E7C08303EDC260A128A11F630F00090
:100DA4007C08EE260A128A11FA0078087A07FB00FA
:100DB400303EDC2EF200FD270F30881488057208BF
:100DC400F0398804B9270A128A110F30FD278805E3
:100DD400720EF0398804B92FF200F101700872180C
:100DE400F1070310F00D0310F20CF208031DF02EAE
:100DF40071080800F401F501701C062F7208F4074D
:100E04000318F50A7308F5070310F20DF30D031028
:100E1400F10CF00C71087004031DFE2E7508F1002E
:100E24007408F0000800F501F11F1F2FF009F10903
:100E3400F00A0319F10AF501F50AF31F282FF20944
:100E4400F309F20A0319F30A0130F506F601F70172
:100E54007108700403194D2FF401F40AF11B362FA5
:100E64000310F00DF10D2F2F0310F60DF70D71087F
:100E74007302031D3F2F70087202031C492F700870
:100E8400F2027108031CF303F30276140310F10C4D
:100E9400F00CF40B362F75080319552FF609F709D2
:100EA400F60A0319F70A7708F1007608F00008003B
:100EB4008312EF270A128A1183160230EF270A12CF
:100EC4008A11F5000430F400BA30F300F30B682FF4
:100ED400F40B682FF50B682F6400F6270A128A11A9
:100EE400B9270A128A112730F400F530F300F30B06
:100EF400792FF40B792F0F30FD27880530308804C3
:100F0400B9270A128A11D630F300882F892FF30BE0
:100F1400872F6400F6270A128A11B9270A128A1148
:100F24000D30F400FB30F300F30B962FF40B962FE7
:100F34009B2F0F30FD2788058816B9270A128A11BE
:100F44000D30F400FB30F300F30BA62FF40BA62FA7
:100F5400AB2F2830CF270A128A110C30CF270A1260
:100F64008A110130CF270A128A110630CF2F04309C
:100F74000814F1003D30F000F00BBE2FF10BBE2F32
:100F8400C32FFD2704300810F1003D30F000F00BB2
:100F9400C92FF10BC92FCE2F0800F200FD270F3007
:100FA400881088057208F0398804B9270A128A1152
:100FB4000F30FD278805720EF0398804B92F0130EF
:100FC400CF270A128A110D30F400FB30F300F30B23
:100FD400E92FF40BE92FEE2F0800081088100812EF
:100FE40088120813881308000F308312031388052E
:0C0FF4003030880408008312031308004A
:02400E0072FF3F
:00000001FF
