:060000000A128A110C280F
:10000800FE00030EF0000A08F1000A128A11CC2A39
:100018000A128A11DD2A6C210A128A118821290BF9
:100028001B28203094200A128A11203037280A30E1
:10003800F200F3012408F5002308F400A6200A12B0
:100048008A117208303E94200A128A110A30F2008E
:10005800F30188212408F5002308F400D0200A12AF
:100068008A117208303E94200A128A113A3094207C
:100078000A128A1188212908023A031D49282030CA
:1000880094200A128A11203065280A30F200F30100
:100098002608F5002508F400A6200A128A1172081D
:1000A800303E94200A128A110A30F200F3018821A6
:1000B8002608F5002508F400D0200A128A117208D3
:1000C800303E94200A128A113A3094200A128A117A
:1000D80088212908033A031D7728203094200A1222
:1000E8008A11203094280A30F200F3012808F5001C
:1000F8002708F400A6200A128A117208303E9420BC
:100108000A128A110A30F200F30188212808F50042
:100118002708F400D0200A128A117208303E942869
:10012800F30088210F30861486057308F039860499
:100138004C210A128A110F3088218605730EF03976
:1001480086044C29A101A201730872040319CB2863
:10015800A001A00AF31BB4280310F20DF30DAD287B
:100168000310A10DA20D73087502031DBD287208A6
:100178007402031CC7287208F4027308031CF503F1
:10018800F50221140310F30CF20CA00BB42822087A
:10019800F3002108F2000800730872040319EF281D
:1001A800F601F60AF31BDC280310F20DF30DD5282F
:1001B80073087502031DE22872087402031CEB28F9
:1001C8007208F4027308031CF503F5020310F30C1C
:1001D800F20CF60BDC287508F3007408F20008002E
:1001E800831281210A128A118316343081210A125E
:1001F8008A11F500F130F400F40B0029F50B002901
:1002080005297A210A128A114C210A128A1108300A
:10021800F500C930F400F40B0F29F50B0F29142948
:100228007A210A128A114C210A128A116330F400C9
:10023800F40B1C291F297A210A128A114C210A124F
:100248008A110330F5009730F400F40B2929F50BD7
:1002580029292E290F308821860586164C210A1255
:100268008A110330F5009730F400F40B3929F50BA7
:1002780039293E2928305A210A128A110C305A216C
:100288000A128A1101305A210A128A1106305A2993
:1002980010300614F200F20B4F2964008821103048
:1002A8000610F200F20B562964000800F3008821BA
:1002B8000F30861086057308F03986044C210A121F
:1002C8008A110F3088218605730EF03986044C296F
:1002D80001305A210A128A110330F5009730F400D0
:1002E800F40B7429F50B7429792908000F3083124F
:1002F800031386053030860408000610861006129F
:100308008612061386130800831203130800F701E8
:1003180083160810831207300810831689009F007F
:100328000A128A11F4200A128A110A128A11EA2280
:100338000A128A11F708031DC0298312031309182A
:10034800B029F701F70A0918B02977080A128A11A3
:1003580096220A128A11A7297B087A04031DBE294E
:1003680079087804031DBE292B082A04031DBE2919
:1003780008145C2A08105C2A83120313891CCB29F1
:10038800FA2977080A128A1196220A128A118918FC
:10039800EF29C5297A083B3A7B04031DD529FA01C0
:1003A8000C2AFA0A0319FB0A5C2A78083B3A7904F2
:1003B800031DE029F8011B2AF80A0319F90A5C2A27
:1003C8002A08173A2B04031DEB29AA012A2AAA0A8C
:1003D8000319AB0A5C2A7708013A0319E429033A9E
:1003E8000319D929013A0319CE295C2A091D032AC0
:1003F8003E2A77080A128A1196220A128A110919C6
:10040800332AFD297B087A04031D0E2A3B30FA00A3
:10041800FB015C2A0130FA020030031CFB03FB02DB
:100428005C2A79087804031D1D2A3B30F800F9017D
:100438005C2A0130F8020030031CF903F9025C2A37
:100448002B082A04031D2C2A1730AA00AB015C2AAA
:100458000130AA020030031CAB03AB025C2A770808
:10046800013A0319242A033A0319152A013A0319F0
:10047800062A5C2A091C472A5C2A77080A128A116C
:1004880096220A128A110918512A412A02304D2A45
:100498000330F7005C2AF7015C2A7708013A031950
:1004A8004A2A033A03194C2A013A03194F2A5C2AAB
:1004B80077080A128A1196220A128A112D082C042A
:1004C800031D792A2B08A4002A08A3007908A6008E
:1004D8007808A5007B08A8007A08A700A9010A12D5
:1004E8008A110F200A128A119E292D03F43003194C
:1004F8002C06031D9E29770803199E292B08A400A2
:100508002A08A3007908A6007808A5007B08A80097
:100518007A08A7007708A9000A128A110F200A1280
:100528008A119E29F2002D08033AE83003192C0697
:10053800031D0800AC01AD01F208031D08007B088B
:100548007A04031DC52A79087804031DBB2A2B08E1
:100558002A04031908000130AA020030031CAB0367
:10056800AB023B30F800F901FA00FB01080001304A
:10057800F8020030031CF903F9023B30FA00FB01D2
:1005880008000130FA020030031CFB03FB020800DC
:100598000B1DD62A08308312031381000B11AC0AF5
:1005A8000319AD0A71088A00700E8300FE0E7E0ED4
:1005B80009000A30F801F901AA01AB01AC01AD014B
:1005C800FA00FB0183010A128A118B29EB2AC13038
:0C05D8008316031381058B168B17080097
:02400E0072FF3F
:00000001FF
